:1006FD0060801A00080201010101010701000200DA
:10070D0000000000060202020202020609000000BB
:10071D000000003F08010201010101070102020270
:10072D000400000006060406060606060900000081
:10073D000000003F0101010101010107000000005F
:10074D00000000000606060606060606000000006C
:10075D000000003F0101010101010107000000003F
:10076D00000000000606060606060606000000004C
:10077D000000003F60241A87000000000000000008
:10078D00000000000000000000000000000000005C
:10079D00000000000000000000000000471A80E08B
:0607AD00000006CEE4008E
:1007C50090E60174CEF090E6F574FFF0901A80E0A3
:1007D50090E6F3F0901A81E090E6C3F0901A82E07B
:1007E50090E6C1F0901A83E090E6C2F0901A85E099
:1007F50090E6C0F0901A86E090E6F4F075AF0774C5
:100805001AF59A7400F59B759DE4E4F59EFFEFC318
:10081500948074809480500B90E67BE090E67CF0A9
:100825000F80EB90E67174FFF0F5B490E672E0444A
:1008350080F043B680000000E490E6C4F0000000BC
:1008450090E6C5F0901A87E090E6C6F0901A88E029
:1008550090E6C7F0901A89E090E6C8F0901A8AE011
:1008650090E6C9F0901A8BE090E6CAF0901A8CE0F9
:1008750090E6CBF0901A8DE090E6CCF0901A8EE0E1
:0408850090E6CDF03C
:01088900224C
:0A1042000001020203030404050587
:10052C00E4F513F512F511F510C203C200C202C2B4
:10053C0001120B287E017F008E688F697570017522
:10054C007114756601756720756E01756F42757251
:10055C000175736A90E680E030E70E85666A856700
:10056C006B856E6C856F6D800C856E6A856F6B8587
:10057C00666C85676DEE54E0700302069775140087
:10058C007515807E017F008E168F17C374B69FFF82
:10059C0074019ECF2402CF3400FEE48F0F8E0EF533
:1005AC000DF50CF50BF50AF509F508AF0FAE0EAD10
:1005BC000DAC0CAB0BAA0AA909A808C31210315038
:1005CC0026E515250BF582E514350AF58374CDF077
:1005DC00E50B2401F50BE4350AF50AE43509F509B8
:1005EC00E43508F50880C4E4F50BF50AF509F508BF
:1005FC00AF0FAE0EAD0DAC0CAB0BAA0AA909A80837
:10060C00C31210315033E517250BF582E516350A68
:10061C00F583E0FFE515250BF582E514350AF58326
:10062C00EFF0E50B2401F50BE4350AF50AE4350986
:10063C00F509E43508F50880B785146885156974E3
:10064C00002480FF740134FFFEC3E5719FF571E552
:10065C00709EF570C3E56B9FF56BE56A9EF56AC3FA
:10066C00E56D9FF56DE56C9EF56CC3E5679FF567D1
:10067C00E5669EF566C3E56F9FF56FE56E9EF56EBC
:10068C00C3E5739FF573E5729EF572D2E843D820EB
:10069C0090E668E04409F090E65CE0443DF0D2AFAF
:1006AC0090E680E020E105D2081208D090E680E0C8
:1006BC0054F7F0538EF8C203300105120300C20147
:1006CC003003291200005024C203120F4F200016D1
:1006DC0090E682E030E704E020E1EF90E682E03043
:1006EC00E604E020E0E4120EA5121058120F278049
:0106FC00C736
:1003000090E6B9E070030203B114700302043024D4
:10031000FE70030204B624FB70030203AB147003E7
:100320000203A514607314607624056003020518A7
:1003300012105A400302052490E6BBE024FE60221E
:1003400014603324FD601114602224067048E568AF
:1003500090E6B3F0E5698037E57090E6B3F0E571BB
:10036000802DE56A90E6B3F0E56B8023E56C90E6BE
:10037000B3F0E56D801990E6BAE0FF120ED1AA063F
:10038000A9077B01EA494B600DEE90E6B3F0EF90D0
:10039000E6B4F002052402051D12100E0205241217
:1003A000104C020524120DC7020524120FFC020591
:1003B0002412105C400302052490E6B8E0247F601C
:1003C0001514601924027065A200E43325E0FFA231
:1003D00002E4334F8043E490E740F0804190E6BC74
:1003E000E0D39480748094807E0040047F0180027A
:1003F0007F0090E6BCE0547EFDEF4D2442F5827410
:10040000103EF583E493FF3395E0FEEF24A1FFEE69
:1004100034E68F82F583E0540190E740F0E4A3F0E6
:1004200090E68AF090E68B7402F002052402051D26
:1004300012105E400302052490E6B8E024FE601727
:100440002402600302052490E6BAE064017005C24C
:100450000002052402051D90E6BAE0705790E6BC44
:10046000E0D39480748094807E0040047F018002F9
:100470007F0090E6BCE0547EFDEF4D2442F582748F
:10048000103EF583E493FF3395E0FEEF24A1FFEEE9
:1004900034E68F82F583E054FEF090E6BCE05480B1
:1004A000131313541FFFE0540F2F90E683F0E04422
:1004B00020F080708067121060506990E6B8E024E8
:1004C000FE601A2402705D90E6BAE064017004D206
:1004D00000805190E6BAE064026049804090E6BC3A
:1004E000E0D39480748094807E0040047F01800279
:1004F0007F0090E6BCE0547EFDEF4D2442F582740F
:10050000103EF583E493FF3395E0FEEF24A1FFEE68
:1005100034E68F82F5838008120D0C500790E6A018
:0B052000E04401F090E6A0E04480F011
:01052B0022AD
:0300330002105464
:0410540053D8EF324C
:100EA50090E682E030E004E020E60B90E682E03058
:100EB500E119E030E71590E680E04401F07F147E0B
:0C0EC5000012088A90E680E054FEF02243
:1008D00030080990E680E0440AF0800790E680E066
:1008E0004408F07FDC7E0512088A90E65D74FFF014
:0F08F00090E65FF05391EF90E680E054F7F0222E
:020ED100A9076F
:100ED300AE72AF738F828E83A3E064037017AD018C
:100EE30019ED7001228F828E83E07C002FFDEC3E92
:080EF300FEAF0580DFE4FEFF05
:010EFB0022D4
:100F4F0090E682E044C0F090E681F0438701000014
:040F5F00000000226C
:10088A008E188F1990E600E054187012E5192401A9
:10089A00FFE43518C313F518EF13F519801590E620
:1008AA0000E05418FFBF100BE51925E0F519E5180B
:1008BA0033F518E5191519AE18700215184E6005AA
:0608CA00120F6380EE2214
:100F63007400F58690FDA57C05A3E582458370F9A1
:010F7300225B
:03004300020900AF
:030053000209009F
:10090000020F7400020FD000020FBA00020F8C0019
:10091000020E4100020E04000208FF0002106200F5
:1009200002106300021064000210650002106600ED
:1009300002106700021068000210690002106A00CD
:1009400002106B000210620002106C0002106D00B9
:10095000020FE60002106E0002106F00021070001D
:1009600002107100021062000210620002106200A8
:100970000210720002107300021074000210750061
:100980000210760002107700021078000210790041
:1009900002107A0002107B0002107C0002107D0021
:1009A00002107E0002107F00021080000210810001
:0809B000021082000210830016
:100100001201000200000040B404092000000102B6
:020110000001EC
:0A0114000A0600020000004001008E
:1001200009022000010100A0320904000002FF00C2
:100130000000070502020002000705860200020017
:1001420009022700010100A0320904000003FF0098
:100152000000070502024000000705860240000079
:070162000705080240000040
:10016A000403090412034A0075006C006900500078
:10017A0072006F00670036034E0041004E004400D3
:10018A002D0046006C0061007300680020006900C1
:10019A006E0074006500720066006100630065000D
:0E01AA00200076002E003000300031000000F2
:1007B300C105012400411AAB00C106016500014EC9
:0107C3000035
:100FA400000000E490E670F075B20BD281000000FE
:060FB400D28000000022C3
:1009B800E4FDFC90E68AF090E68BF090E6A0E0205B
:1009C800E1F990E740E0146003048012D20790E652
:1009D800187411F000000090E61A740D8010C20718
:1009E80090E6187410F000000090E61A740CF000FD
:1009F800000090E741E014600C14600E14601024AD
:100A0800037011800F752203800D7522048008750C
:100A1800220580037522027D0290E68BE0FFEDC37C
:100A28009F503D74402DF582E434E7F583E0FF7470
:100A3800512CF8A60774412DF582E434E7F583E0DC
:100A4800FE74422DF582E434E7F583E0FBEBFFEC1E
:100A580025E02426F8A60608A6070D0D0D0C80B97A
:070A6800E4F54FEC14F52545
:010A6F002264
:070EFC007451254FF8E6FFD9
:100F0300E58054407003438040AE22A80674010874
:100F13008002C333D8FCF45440FEEFC413135403CC
:040F23004EF58022E5
:100D8600000000E490E670F000000075B27F0000FD
:100D960000FFEFC3942074809480501374512FF891
:100DA600E4F6EF25E02426F8E4F608F60F80E3E4FF
:100DB600F54FF5257580BC752202C207C204C2052F
:010DC600220A
:100B2800120D8690E60B7403F090E6007410F00046
:100B380000000000001207C500000090E61274A033
:100B4800F000000090E61474E0F000000090E61554
:100B5800E0547FF000000090E613E0547FF00000BE
:100B68000090E6047480F00000007482F000000039
:100B78007486F0000000E4F000000090E6497482FA
:100B8800F0000000F0000000F0000000F00000009D
:100B9800E490E618F00000007410F000000090E601
:100BA8001A740CF000000090E6247402F0000000B3
:100BB800E490E625F000000000000090E6D204F082
:0C0BC80000000090E6E204F000000022B3
:100F27007451254FF8E630E50FE54F25E02426F804
:100F3700E6FE08E6FF020E77E54F25E02426F8E6F1
:080F4700FE08E6FF120BD422A4
:1010200090E6D0EFF000000090E6D1EDF000000077
:01103000229D
:040BD400AD07AC06B7
:100BD800E4FBFAE5BB20E703020C7FE5AB20E1204C
:100BE800120EFC000000AF04121020000000E4F513
:100BF800BB000000E54FB52504E4F54F22054F2260
:100C0800300474C20490E6AFE090E624F0000000DF
:100C180090E6B0E090E625F000000030070890E686
:100C28001A7405F08005E490E61AF000000090E6DA
:100C3800487406F000000090E61A300705740DF0BD
:100C48008003740CF000000090E6247402F00000A9
:100C580000E490E625F000000090E6F4E020E114BE
:100C6800EB64907003EA6401600A0000000BBB00AB
:070C7800010A80E57580BC54
:010C7F002252
:100E7700AD07AC06E5BB30E724E5AC20E01F120E5A
:100E8700FC000000AF0412102000000075BB060034
:0E0E97000000E54FB52504E4F54F22054F227B
:100A700090E6A3E030E203C2052290E6F574FFF0B1
:100A800000000090E6047480F0000000E490E61896
:100A9000F000000090E6047482F000000090E64947
:100AA000F0000000F0000000F0000000F000000086
:100AB00090E6187410F0000000E490E604F00000E6
:100AC000007480F0000000E490E61AF0000000904E
:100AD000E6047486F000000090E61A740CF0000042
:100AE00000E490E604F000000000000090E62474AA
:100AF00002F0000000E490E625F0FFEFC3942074BC
:100B0000809480501374512FF8E4F6EF25E02426EA
:100B1000F8E4F608F60F80E3E4F54FF5257580BCA0
:070B2000752202C207C204A6
:010B270022AB
:02105800D322A1
:02105A00D3229F
:100DC70090E680E030E71800000090E6247402F017
:100DD700000000E490E625F0000000D2068016002F
:100DE7000000E490E624F000000090E6257440F04F
:0D0DF700000000C20690E6BAE0F550D322DD
:100FFC0090E740E550F0E490E68AF090E68B04F040
:02100C00D322ED
:08104C0090E6BAE0F523D3227F
:10100E0090E740E523F0E490E68AF090E68B04F05A
:02101E00D322DB
:02105C00D3229D
:02105E00D3229B
:02106000D32299
:100D0C0090E6B9E0244E601714601E146024146041
:100D1C002A14604924FB705E90E740E5658043121D
:100D2C0009B890E74074B28039D20490E74074B3AC
:100D3C008030D20590E74074B4802790E6A3E09011
:100D4C00E740F090E6A5E090E741F0A205E433A37C
:100D5C00F0E490E68AF090E68B7403800F90E74005
:100D6C0074B6F0E490E68AF090E68B04F090E6A07E
:0A0D7C00E04480F08002D322C3227D
:100F7400C0E0C083C082D2015391EF90E65D74015A
:080F8400F0D082D083D0E032EE
:100FBA00C0E0C083C0825391EF90E65D7404F0D024
:060FCA0082D083D0E0326A
:100FD000C0E0C083C0825391EF90E65D7402F0D010
:060FE00082D083D0E03254
:100E4100C0E0C083C082856E6A856F6B856B8285C9
:100E51006A83A37402F085666C85676D856D8285F2
:100E61006C83A37407F05391EF90E65D7410F0D09A
:060E710082D083D0E032C4
:100F8C00C0E0C083C082D2035391EF90E65D740839
:080F9C00F0D082D083D0E032D6
:100E0400C0E0C083C08290E680E030E72085666A57
:100E140085676B856B82856A83A37402F0856E6C2B
:100E2400856F6D856D82856C83A37407F05391EF94
:0D0E340090E65D7420F0D082D083D0E032D3
:0108FF0032C6
:01106200325B
:01106300325A
:011064003259
:011065003258
:011066003257
:011067003256
:011068003255
:011069003254
:01106A003253
:01106B003252
:01106C003251
:01106D003250
:100FE600C0E0C083C0825391EF90E65B7410F0D0EE
:060FF60082D083D0E0323E
:01106E00324F
:01106F00324E
:01107000324D
:01107100324C
:01107200324B
:01107300324A
:011074003249
:011075003248
:011076003247
:011077003246
:011078003245
:011079003244
:01107A003243
:01107B003242
:01107C003241
:01107D003240
:01107E00323F
:01107F00323E
:01108000323D
:01108100323C
:01108200323B
:01108300323A
:03000000020C806F
:0C0C8000787FE4F6D8FD758173020CC784
:10103100EB9FF5F0EA9E42F0E99D42F0E89C45F015
:01104100228C
:100C8C0002052CE493A3F8E493A34003F68001F24D
:100C9C0008DFF48029E493A3F85407240CC8C33369
:100CAC00C4540F4420C8834004F456800146F6DF38
:100CBC00E4800B01020408102040809006FDE47EC5
:100CCC00019360BCA3FF543F30E509541FFEE4932D
:100CDC00A360010ECF54C025E060A840B8E493A3F4
:100CEC00FAE493A3F8E493A3C8C582C8CAC583CA1F
:100CFC00F0A3C8C582C8CAC583CADFE9DEE780BED7
:0107C4000034
:00000001FF
